:020000040800F2
:1000000000000220A53400087F1300087D130008BB
:100010007B13000879130008771300080000000024
:100020000000000000000000000000007513000840
:10003000731300080000000071130008C5120008C7
:10004000ED340008ED340008ED340008ED3400080C
:10005000ED340008ED3400089F340008993400089E
:10006000933400088D34000887340008ED3400080C
:10007000ED340008ED340008ED340008ED340008DC
:10008000ED340008ED340008ED340008ED340008CC
:10009000ED340008ED340008ED3400085F3400084A
:1000A000ED340008ED340008ED340008ED340008AC
:1000B0008D140008ED340008ED340008ED3400081C
:1000C000ED340008ED340008ED340008ED3400088C
:1000D000ED340008ED340008ED340008ED3400087C
:1000E00029340008ED340008ED340008ED34000830
:1000F000ED340008ED340008ED340008ED3400085C
:10010000ED340008ED340008ED340008ED3400084B
:10011000ED340008ED340008ED340008ED3400083B
:10012000ED340008ED340008ED340008ED3400082B
:10013000ED340008ED340008ED340008ED3400081B
:10014000ED340008ED340008ED340008ED3400080B
:10015000ED340008ED340008ED340008ED340008FB
:10016000ED340008ED340008ED340008ED340008EB
:10017000E1140008110E0008ED340008ED34000809
:04018000ED34000852
:1001840000000008A03C000800000C00060002006B
:08019400000000000000000063
:10019C00844641EA000313F0030349D1403A23D3C8
:1001AC000B6803604B6843608B688360CB68C360EB
:1001BC000B6903614B6943618B698361CB69C361D3
:1001CC000B6A03624B6A43628B6A8362CB6AC362BB
:1001DC000B6B03634B6B43638B6B8363CB6BC363A3
:1001EC0040304031403ADBD230320BD30B680360E5
:1001FC004B6843608B688360CB68C36010301031F0
:10020C00103AF3D20C3205D351F8043B40F8043BBE
:10021C00043AF9D2043208D0D2071CBF11F8013BC2
:10022C0000F8013B01D30B8803806046704700BF88
:10023C00082A13D38B07B1D010F00303AED0C3F14F
:10024C000403D21ADB071CBF11F8013B00F8013B79
:10025C00A4D331F8023B20F8023B9FE7043AD9D3F0
:10026C00013A11F8013B00F8013BF9D20B7803700D
:10027C004B7843708B788370604670472DE98048CB
:10028C00A64AA74D1368012643F0100313602B6C8C
:10029C00002743F080532B64A24B4FF080441E6028
:1002AC00A14B8DB05A68394642F007025A609A68E1
:1002BC004FF0804042F4C0529A609C4A4FF00308C1
:1002CC00D36843F08073D360994B5F601A683243F4
:1002DC001A60984A03F55D43DA602B6B43F4805344
:1002EC002B636B6C43F480436B6402F017FB238C21
:1002FC00204623F001031B041B0C2384238CA188B0
:10030C00228B23F0020322F073021B0412041B0C39
:10031C00120C89B23343A180228367632384238B1D
:10032C00042123F008031B041B0C238302F02AFA7C
:10033C002046082102F026FA20460C2102F022FA6F
:10034C002046314602F0EAFA60227B497B48FFF7EF
:10035C001FFF7B4C032E21DD1820704300F6EF505D
:10036C0003F0B8F90378FF2B43D0837D03F0090326
:10037C00092B3ED10346A64600F1180C72461868AC
:10038C005968083303C263459646F7D101212069A9
:10039C0002F0C4FAA18A206902F0F4F92B6B62898D
:1003AC000AA913432B63238960680A93237B8DF876
:1003BC002E708DF82C308DF82D808DF82F7002F06A
:1003CC0025FF237B022B14D1A37BE07BD90803F000
:1003DC0007026368920003EB8103196A4FF00F0E5A
:1003EC0090400EFA02F221EA02021A621A6A0243E1
:1003FC001A620136082E04F11804ABD1002002F069
:10040C00B5FC504BF322DA6040F62F6003F062F932
:10041C000378AA2B19D14BF6CC32038A9BB29342A8
:10042C0013D10346484C00F1200522461868596840
:10043C00083303C2AB421446F7D1444B002283F875
:10044C00202001201A8602F091FC00F0F9FF30B157
:10045C004FF0804293899BB243F0020393813C4B53
:10046C003C4AF0215A603C4A002082F823100721B4
:10047C0098601960D02382F8233003F02BF9374AA7
:10048C000346144600F120061546186859680833CF
:10049C0003C5B3422A46F7D14AF6C043238041F63E
:1004AC00DE2363801E4B62695B6F934203D02B4A41
:1004BC00536102F00BF9A3880C2B04D0274B0C22B0
:1004CC009A8002F003F9A37C23B1244B00229A7486
:1004DC0002F0FCF840F6AF6003F0FCF80546A0B162
:1004EC000378012B11D101460B2000F04BFF1C4B64
:1004FC0029461860082000F045FF1A4B2946186061
:10050C000A2000F03FFF184B1860184B184F3B6047
:10051C002389052B30D10122164B36E014ED00E077
:10052C000038024020000E42002004E0F0ED00E014
:10053C00001000E00003FA05CC3800081C02002073
:10054C0034020020003C02407801002058010020B9
:10055C0010E000E0BFD4010000ED00E0FC01002041
:10056C002000002048000020440000200000020869
:10057C00B0010020B901002045F25552934205D13B
:10058C00A94B00221A70A94B01221A704AF6AA2311
:10059C004FF6FF71A28900259A4202BFA44B01229B
:1005AC001A70A44B08950893089B04330893089B76
:1005BC001B689BB2ADF81E30BDF81E309BB28B424F
:1005CC0048D04EF6FA52BDF81E309BB2934202D17F
:1005DC000120994B08E045F6FE22BDF81E309BB277
:1005EC00934203D1954B0120187039E07D2002F025
:1005FC00E5FA002836D0BDF81E309BB2022B09D08C
:10060C00032B10D0012B11D1884A1370BDF81E306A
:10061C00013306E0864B01221A70BDF81E30E580CE
:10062C0013449BB204E0844B01221A704FF6FF7303
:10063C00ADF81E30BDF81E10012089B202F07CFA14
:10064C000023638102F042F87D4A536F43F08073BC
:10065C00536707E00120ADF81E00BDF81E1089B2EB
:10066C0002F06AFA002000F0D9FE40B9734B1B78F7
:10067C00002B6DD00123A37402F028F868E07148B8
:10068C0001F006FADFF8A88142F6E0638246C34621
:10069C006D4DDFF8A4912B60002000F0BFFE002808
:1006AC00E4D02B68002BE1D0002000F0A1FE42F238
:1006BC001073984206D9654B6FF07F421A60012384
:1006CC00E380E9E798F8003003F0FF067BB9304689
:1006DC0000F08EFE41F66413984208D95B4B4FF440
:1006EC007F421A600123E68088F80030D4E799F83D
:1006FC00003003F0FF0083B900F07AFE40F6B73308
:10070C0098420AD9524B1A68504B1A60012389F847
:10071C000030BAF1000FBFD1A8E7484B1A7802F0AD
:10072C00FF06002AB8D13046059300F061FEB0F503
:10073C007A7F059BB0D33C4A8BF8006016703B4A1D
:10074C001670444A1168414A116001221A70A3E7DD
:10075C00354EDFF8DC803378DFF8DC90012B04D1E8
:10076C003D4B1A68394B1A60AFE098F80030F3B182
:10077C0098F80030012B15D1E388012B334B0CBFBB
:10078C006FF07F424FF47F421A6002F0FDF90028AF
:10079C0040F09B80386800F00DFE002800F095803A
:1007AC0002F050F9002388F8003002F0D5F999F8DE
:1007BC000030002B40F0898040F6243002F08AFF94
:1007CC00DFF894A000F1280500F1780B4AF6CD3241
:1007DC0035F8143C934247D1012333701B4ADAF8A5
:1007EC000030136015F8043C15F8112C15F8120C98
:1007FC00029315F8033C019355F8083C009355F807
:10080C000C3C55F8101C01F06BF902F0D1FDA5F170
:10081C001403AB4222D018460021059302F06CFD64
:10082C00059B0433F5E700BFB9010020BA01002095
:10083C00C901002050280040C8010020B801002048
:10084C0000380240F9240008C0010020E00200201A
:10085C0044000020480000202000002002F0A0FDF1
:10086C000020307002F05CFB1435AB45AED13D6816
:10087C00284600F09FFD10B36A688D4B1A602A68F9
:10088C0082F308884DF20102E18991421A460ED199
:10089C0045F25551874B19600621596040F2712180
:1008AC0099604AF6AA2119604CF6CC41196082492C
:1008BC000B6823F001030B601368984705E07F4B2E
:1008CC004FF47F021A6002F05FF97D4B00251D701A
:1008DC007C4B01271A68794B35707B4E88F8005099
:1008EC001A6089F80070336B784C43F00203336361
:1008FC004FF440430A934FF0020803230AA9204601
:10090C008DF82D308DF82C8002F080FC636A704AD3
:10091C0023F070636362636A43F040636362636AEB
:10092C0023F070436362636A43F040436362336B4A
:10093C0043F000533363674BC3F8C424664ADD703D
:10094C00C3F8C824654A9F70C3F8CC2440229A800F
:10095C000C221A7006225A704FF4A062DA80604A98
:10096C00DD72DA6002F500621A6102F580729A613A
:10097C0002F500729A64A2F5F072DA6102F5007267
:10098C00DA64A2F5F0721A6202F500721A65A2F529
:10099C00F0725A6202F500725A65A2F5F07283F891
:1009AC0008809F729A6202F500729A65A2F5F07245
:1009BC00DA6202F50072DA65A2F5F4625A6140322D
:1009CC00C3F8A82003F174011C46464BC03241F811
:1009DC00042F20329A42FAD1434A444B444942F8FC
:1009EC00043F03F580538B42F9D1424B0022C4F8EB
:1009FC00DC30384B15461946012084F8E20084F8A7
:100A0C00E420402681F8EC20A1F8F2200132062ADD
:100A1C0081F8ED0081F8EF50C1F8F460C1F8F8509E
:100A2C00C1F8005101F12801ECD1002211464020FF
:100A3C0083F8CC22A3F8D2220132062A83F8CD12F5
:100A4C0083F8CF12C3F8D402C3F8D812C3F8E0125B
:100A5C0003F12803ECD1224A002593681D4E23F0A4
:100A6C0001039360237A012B48D1F268717A936B5E
:100A7C0065F3104309B143F480139363D3681E48A4
:100A8C006FF386136FF396536FF351436FF3D343A6
:100A9C00D36002F0B3FAE378012B45D1052363F35D
:100AAC0044050C4B45F02005DB689D603CE000BF25
:100ABC00B40100200030004010E000E0E002002013
:100ACC00BA0100204400002000380240000402401B
:100ADC004C000020E4130020240000200000002023
:100AEC0000000440800604408C14002000100440D8
:100AFC0000D00440000E0440F0130020304650F8A3
:100B0C000C2FD36843F04003D36002F077FA737A6A
:100B1C00E268002B0CBF4FF434134FF4741393633F
:100B2C0044F6206000F07CFFE378012B08D1834B66
:100B3C000522DB689D6862F3440545F020059D6045
:100B4C00E2684CF25030D3687C4D6FF35D7343F028
:100B5C008043D36000F064FFD4F8DC2000211160E6
:100B6C0020690B46026861F3CC220260E27A002A0B
:100B7C003CD12A7A2869012A026814BF012561F345
:100B8C000102C0F2400118BF65F301020260E26885
:100B9C004FF4807060F30F01506291624FF4A071BA
:100BAC0061F30F0360F31F434FF41071C2F804316B
:100BBC0061F30F03C0F220034FF41871C2F808312F
:100BCC0061F30F0360F31F434FF45871C2F80C31FB
:100BDC0061F30F03C0F220034FF46071C2F81031BF
:100BEC0061F30F03C0F24003C2F81431102002F07D
:100BFC009BF800230993099B43F010030993099B6D
:100C0C00E26813614E4B1169013B099102D00999BD
:100C1C00C906F8D4032000F003FF00231D46226907
:100C2C004FF0FF3113612269FF2653619161D3614B
:100C3C00444A61788B420ED2106801330168002956
:100C4C00ACBF00214FF09041016011680D6152F86A
:100C5C00041B8E60EDE700231D463B4AFF2660789F
:100C6C00364983420ED21068013301680029ACBFAB
:100C7C0000214FF09041016011680D6152F8041B86
:100C8C008E60ECE70A69C8781369012843F4807315
:100C9C00136105D12D4B402262F359430A6913634A
:100CAC00E268002393614FF0FF316FF08043536192
:100CBC005160E26800285361254B936114BF4FF4D7
:100CCC0000634FF4016343F47013916943F4405390
:100CDC0043F008030B439361936843F00103936063
:100CEC00D4F8C8340BB11B6898474D230226002555
:100CFC0001240AA88DF828308DF829608DF82A5027
:100D0C008DF82B4002F062FB4A230AA88DF828309C
:100D1C008DF829608DF82A508DF82B4002F056FB87
:100D2C004B230AA88DF828308DF829608DF82A50AD
:100D3C008DF82B4002F04AFBFEE700BFE4130020C5
:100D4C00410D0300FC1300202C14002003010100B2
:100D5C0000080080014658B14378EE2B08D18388F7
:100D6C00042B05D143881BB9024B03489B681847D9
:100D7C00022070474C000020E41300207047000054
:100D8C0030B4134B42019C18648AACB1C4B203EB6F
:100D9C004414656824892D692C4214BF0124002455
:100DAC008C4209D1995C09B90121995413441A8ACE
:100DBC000A3292B21A8209E09B5C3BB1044B0021CF
:100DCC009954C0B2012130BC01F088BC30BC7047D2
:100DDC005801002038B50A4A4301D418658A8D425F
:100DEC000DD1002121820124D454C0B201F076FC33
:100DFC004FF0804293899BB243F00203938138BD3C
:100E0C00580100202DE9F04F8D4C85B0E3685A69EC
:100E1C00D00700F146825A699B691340009300F099
:100E2C004082C3F307431907019351D5A046A1464D
:100E3C002369DFF814A29E69DB6904F1480B1E409C
:100E4C00360C0027002E43D0F2073AD5F9B204EB4A
:100E5C0081039B6C9D6823695B691D40EB0720D562
:100E6C00DBF8003001259D6099F80330AB4209D1C5
:100E7C00DBF800301B69C3F31200D8F8D4321B1A0C
:100E8C00C8F8E432DAF800306D489847E378012B63
:100E9C0007D137B999F8E130052B02D1684802F037
:100EAC00D5F8A80742BFDBF8003002259D60290762
:100EBC0007D5DAF8083062489847DBF8003008228A
:100ECC009A60013776080BF1040B08F12808B9E792
:100EDC00019B5A0740F1BA805A4F2369A7F11806B3
:100EEC00B3469A69DB694FF0000A02EA03081FFA5D
:100EFC0088F8B8F1000F00F0A98018F0010F00F08D
:100F0C00988022695FFA8AF91169536B04EB8900A6
:100F1C00806923FA09F3DB01DBB2806843EA01053F
:100F2C000540EB071BD5536B012505FA0AF123EAA3
:100F3C00010353633B6849469D60434B40485B68E3
:100F4C0098479BF80330AB4209D1BAF1000F06D198
:100F5C009BF8E130042B02D1394802F077F82807CE
:100F6C0042BF3B6808259D60E90642BF3B681025DF
:100F7C009D606A0642BF3B6840259D60AB0742BF3F
:100F8C003B6802259D602D0653D5D6F80031D6F866
:100F9C00042109F12A099A1AD6F8F4300BEB8909C5
:100FAC00934228BF13463A68033392699B0892B266
:100FBC009A423BD9D6F80401D6F80031834235D990
:100FCC00A3B3D6F8F410181A884228BF0846E27862
:100FDC00C31C9B08BAB1D6F8F810D6F8042101440A
:100FEC00C6F8F810D6F8001102448A42C6F804215B
:100FFC0019D3216996F8EC004A6B0123834022EA4D
:10100C0003034B6312E081B20331D6F8F850D9F8E0
:10101C0004E04FEAA10C9445DDD055F822100132C2
:10102C00CEF80010F7E73A689269C0E73B68802574
:10103C009D600AF1010A4FEA58080437283658E730
:10104C00E4130020FC130020800000209DF80070A9
:10105C00B80742BFE36802225A61009B002B18DAE2
:10106C00A37A914A43B1D2F8DC30D2F8DC206FF38A
:10107C0041036FF30003136022698B48536823F01C
:10108C0001035360894B9B699847E3684FF000421A
:10109C005A61009BC3F3072529072ED500238DF831
:1010AC000F3094F8E230804E8DF80F307F4B304685
:1010BC005B699847E26823694FF400619B68516152
:1010CC00A27AD2B1DA0718D596F8E530012B14D1F3
:1010DC009DF80F30032B10D1D6F8DC20136843F0A9
:1010EC0001031360D6F8DC20136843F0030313608C
:1010FC006F4A136943F0060313613B0706D56B4B2C
:10110C006948DB689847E36808225A61FE0646D5B1
:10111C00E36865499A6922F010029A611B6AC3F36D
:10112C004340022803F00F020FD0062832D1D1F829
:10113C00AC00C3F30A130668C1F8AC640068C1F8CC
:10114C00B004282000FB02121FE047F6F070184094
:10115C0000B3282000FB0210C3F30A13D0F8D862A6
:10116C00D81CD1F8AC7080100021884205D0D7F87B
:10117C0000E046F821E00131F7E7282101FB0242AB
:10118C00D2F8D8121944C2F8D812D2F8E4120B448F
:10119C00C2F8E432E268936943F010039361E80605
:1011AC0035D5226900265368304623F0010353607D
:1011BC0001F0BAFD334667783E4AFF21BB4206D2A6
:1011CC0052F8040F01338160106B8160F6E72369DC
:1011DC004FF0FF329A61012262F30F0662F31F4651
:1011EC000B22DE615A61C3F884201A6121692E48F2
:1011FC004A640B686FF30A130B6001F027FFE36876
:10120C004FF480525A61294B27481B699847A9060D
:10121C0030D52369A1699A680B68C2F34102022A8E
:10122C0006BF032262F30A036FF30A030B60226901
:10123C00536843F480735360E1682369CA689B6800
:10124C00C3F34103022B09D008D8012B06D000238D
:10125C00A3704FF40073A380092304E00123A3704F
:10126C004023A380052363F38D22CA60E3684FF407
:10127C0000525A61009BC3F30745EA0607D50B4B96
:10128C000948DB699847E3684FF480125A61AB0652
:10129C0007D5064B04481B6A9847E3684FF40012C5
:1012AC005A6105B0BDE8F08FE413002080000020E7
:1012BC0000ED00E0F813002010B5EFF3108372B6C8
:1012CC001D49DB070A6802F101020A601B4A5168DA
:1012DC001B4A116000D462B61A4B1A6812B11A6814
:1012EC00013A1A60184B1A681C461AB11A68013A6E
:1012FC001A6016E0154B1B782BB9154B1B7813B9DC
:10130C00144B1B781BB101F023FE322308E0124B67
:10131C001B7813B9114B1B781BB101F019FE642318
:10132C0023600F4A136833B1013B13601BB900F003
:10133C00ADFD01F011FC10BDBC010020001000E05F
:10134C00CC010020C0010020C4010020C9010020F4
:10135C00BA010020B9010020B8010020C80100200A
:10136C00E0010020704770477047FEE7FEE7FEE79C
:10137C00FEE770474AF6AA22014B00201A6070471C
:10138C000030004010B500EB400001300A5C0C1836
:10139C00130960781101C9B202F00F0243EA03137A
:1013AC000A4300091B0443EA022340EA00101843D5
:1013BC0010BD000002680D4B1340B3F1005F14BF69
:1013CC00034600F5C2735BB11A6882420AD15A68AF
:1013DC00B2F1016F06D89B89063B5842584102E096
:1013EC00184600E00020C0B2704700BF0000F12F8B
:1013FC0038B50346084D05EB4312148AA4B243B921
:10140C006B8E33B10120FFF7F3FF84424FF00103E1
:10141C00F1D3204638BD00BF5801002010B5074B52
:10142C0042019C5CE4B230B95B8E23B10120FFF722
:10143C00F5FF2043C4B2204610BD00BF5801002068
:10144C0010B500210D4C0846FFF79AFC94F83C109F
:10145C000120A1F1080359425941FFF791FC23786F
:10146C0094F82000181807D14FF08042938923F08C
:10147C0002031B041B0C938110BD00BF58010020FC
:10148C004FF08043198A9A89890792B206D5920740
:10149C0004D54FF6FD721A82FFF7D2BF70470000D9
:1014AC0010B50A4B04461A68596908420CD0104210
:1014BC000AD0014658610020FFF78CFC2146BDE89C
:1014CC0010400120FFF786BC10BD00BF003C01405E
:1014DC0001F01CBC10B50F4CA37AABB10E4A1368CB
:1014EC0023F00603136001F0BDFAA37A63B12369FC
:1014FC009B68DB0708D5D4F8DC30D4F8DC206FF31C
:10150C0041036FF300031360044B4FF480125A61D4
:10151C0010BD00BFE413002010ED00E0003C0140C2
:10152C0038B504460D46002938D190F8E130032B2C
:10153C003DD1D0F8E812D0F8D422914213D98B1AAD
:10154C00C178C0F8E832012902BFD0F8D812891846
:10155C00C0F8D8129A4228BF1A46D0F8D81292B2C4
:10156C0001F091FC23E0D0F8C8349BB1DB698BB15E
:10157C0090F8E220032A0DD101212846984748B162
:10158C00D4F8C4341B692BB194F8E220032A01D19E
:10159C0020469847204600F0A1FC08E0D0F8C4345F
:1015AC009B6923B190F8E220032A00D198470020D0
:1015BC0038BD0000F0B590F8AF2490F8AE3490F838
:1015CC00B15403EB022390F8B02490F8B37402EBFF
:1015DC00052590F8B22490F8AC1402EB07220127F1
:1015EC0090F8AD6480F8E17001F01F0785B092B2FD
:1015FC009BB2ADB2012F04468DF808108DF809602E
:10160C00ADF80A30ADF80C50ADF80E20C0F8102132
:10161C0000F0728103D3022F00F08281ECE101F023
:10162C006001402916D1D0F8C834002B00F0E881B5
:10163C00DB69002B00F0E481002102A89847BDF87B
:10164C000E301BB9002840F05E81E5E0002800F068
:10165C00D78158E1092E00F25681DFE816F005011A
:10166C004301540115015401A8000A005401F8006B
:10167C00C6001A0A013A062A00F24581DFE812F088
:10168C0007001A0033004301430164007A00D0F8CC
:10169C00CC340DF106011B6880789847BDF80E30EC
:1016AC00402B03D094F8E230012B6FD10823ADF816
:1016BC0006306BE0D0F8C4240DF10601D8B2926A62
:1016CC009047A378012B09D1237A012B06D1D4F8AA
:1016DC00C4240DF10601D26A1846904702234370C8
:1016EC00C4F8D00452E0D9B20329807814D006D8BB
:1016FC000129D4F8CC3408D00CD85B6806E0052955
:10170C0012D00DD3EE2913D017E09B680DF1060112
:10171C0098473BE0DB68F9E7D4F8CC341B69F5E774
:10172C00D4F8CC345B69F1E7D4F8CC349B69EDE7A1
:10173C00D4F8CC34DB69002BE8D1D4F8C4340DF1E7
:10174C0006021B6B984721E08078002840F0DB8074
:10175C00D4F8C4340DF106019B6A9847AA49837BDF
:10176C000B71C37B4B71037C08468B710A23ADF85C
:10177C0006300BE08078002840F0C580D4F8C434E3
:10178C000DF10601DB6A984707234370BDF806206C
:10179C00002A00F03581BDF80E30002B00F03081AE
:1017AC009A4228BF1A460146ADF806201CE1002DCE
:1017BC0040F0A980002A40F0A68090F8E21003F0D7
:1017CC007F05032900F09F80016980F8E45063F3E2
:1017DC000A120B681A430A6000F080FB0DB1022359
:1017EC0000E0012384F8E2300AE1D9B2874D0129E7
:1017FC00297000F2888090F8E230022B02D0032B83
:10180C000ED080E041B10121032380F8E01080F874
:10181C00E230204600F0FEFD204600F05FFBEFE0DA
:10182C0049B9022380F8E230D0F8C43480F8E010D3
:10183C005B689847F0E790F8E0100129ECD0D0F8FD
:10184C00C4345B689847297884F8E010E1E7012AF2
:10185C0059D190F8E230022B04D0032B53D100F174
:10186C00E001C1E06A49BFE090F8E230023B012B95
:10187C0049D8684B01221A60D0F8E8200AB103223B
:10188C001A6002226349AFE0012B08D1C4F8E8309A
:10189C00D4F8C43402A99B6820469847BCE7022BB5
:1018AC0040F0AE8015F0FF0F40F0AA8003692D0ABE
:1018BC00013D5B68042D0FD8DFE805F0030507092F
:1018CC000B00012206E0022204E0032202E00422C3
:1018DC0000E0052262F306134F4A1360012384F8DB
:1018EC00E63099E790F8E220023A012A0BD8012B56
:1018FC0040F086800023C9E790F8E230032B77D1C3
:10190C00EDB20A2D02D902A9204672E0D0F8C434F7
:10191C0002A99B689847BDF80E30002B70D17BE76D
:10192C00012EE9B20FD03CD3032E69D190F8E220FE
:10193C00022A3DD0032A5BD1002BA9D14A06A7D09D
:10194C0001F033FBA4E790F8E220022A30D0032AFE
:10195C004ED1002B54D111F07F033FF45DAF6DB22B
:10196C00002D4FF02802B5BF02FB030102FB010161
:10197C00EC3101F5337100228A70EA0F0B704A705A
:10198C0000EB8303002DB4BF9A699A6CC978136875
:10199C0002396FF35553012998BF43F080531360FC
:1019AC0076E790F8E230022B02D0032B03D01FE035
:1019BC004B0625D022E015F0800F4FF02800174A77
:1019CC000DD001F07F0300FB034191F8EE300BB119
:1019DC00012300E0002313601049022204E000FB05
:1019EC00014191F8CE32F2E7204600F085FA07E08B
:1019FC0002A900F08EFA03E001F0800101F0D5FAA3
:101A0C00002005B0F0BD00BFAC000020DC010020C0
:101A1C00D8010020D0010020E8010020D4010020D2
:101A2C00782358430723B0FBF3F00023013398428B
:101A3C00FCD2704738B5124B05465A69114CD20787
:101A4C0041BF114A9A6002F144329A60F322DA6083
:101A5C0001F01EFC082808BF20880C4A02BF28434E
:101A6C0080B22080137843F00203137001F010FC55
:101A7C00034A536943F001035361238838BD00BF07
:101A8C00003C0240163C02403B2A1908143C024020
:101A9C001FB5044640F6243001F01CFE40F6AC7332
:101AAC00028801469A420AD10B7CC2788078029354
:101ABC004B7C0193CB6800938B68496809E04FF429
:101ACC00002104220E238DE80E0000221046024B4A
:101ADC000249A04704B010BD00000208000008082D
:101AEC002DE9F04F89B09DF85040129F02949DF85B
:101AFC004C400097019405900D4606921E4600F04E
:101B0C00F5FC8046002800F08380002F00F08A80CE
:101B1C00069B002B7CD1304600F0B0FD013080B22A
:101B2C00042895BF414B400453F8204000F1FF645A
:101B3C00A41BBC4228BF3C46B6F1006F06EB040365
:101B4C00049303F1FF3B63D3BBF1016F60D83046C4
:101B5C0000F094FD364B13F800A0BAF1580F57D88B
:101B6C00BBF1016F08D901F023FCC4F31002630C24
:101B7C001AB303F1010B21E0012202FA00F01FFA63
:101B8C0080F95846079200F079FDB9F1000FEAD0C0
:101B9C00079A824052001FFA82FB1BEA090FE2D11E
:101BAC00244B198819EA010F02D14846FFF742FF6E
:101BBC004FEA49031FFA83F9EFE79B461E4AF321CC
:101BCC00D16000225A450AD002210AEBC2000792CA
:101BDC0001F0B0FB08281BD1079A0132F2E701F0A3
:101BEC00DFFB01F0E5FB05EB040A761BAA4506EBCF
:101BFC00050003D9059B73B929680DE0012500E0A8
:101C0C00002501F0CDFB1DB13F1B049E55467CE722
:101C1C004FF0000806E0002101F06EFB0828EFD120
:101C2C000435E3E7404609B0BDE8F08F2C390008D5
:101C3C004C390008163C0240003C02400020704722
:101C4C00002070470020704700F17840B0F5801FED
:101C5C0034BF002001207047034630B5064C1A1AD9
:101C6C00914206D953F8045B1259AA42F7D00120CD
:101C7C0030BD002030BD00BFE402002070470020C2
:101C8C007047000024230B8000487047E0000020C0
:101C9C0024230B8000487047B600002000207047BA
:101CAC0008B5074B5B6803B19847064B5B6803B1FB
:101CBC009847054A02231370044A0020137108BD8B
:101CCC003001002004010020F8010020BC18002085
:101CDC0008B5D0F8C4345B6A9847002008BD08B535
:101CEC00D0F8C4341B6A9847002008BD08B5D0F85A
:101CFC00C434DB6903B19847002008BD08B590F8DF
:101D0C00E23080F8E330042380F8E230D0F8C834B5
:101D1C000BB1DB689847002008BD10B5D0F8C8346B
:101D2C0004460BB11B699847032384F8E23000206A
:101D3C0010BD00000F2908B508D88B1F1146044AA6
:101D4C0052F8230001F06AF8024808BD002008BDD3
:101D5C0044390008E412002038B5044600294FD15C
:101D6C0090F8E130022B3FD1D0F80821D0F8F430B4
:101D7C009A4211D9C178D21A012908BFD0F8F810AB
:101D8C00C0F8082104BF5B18C0F8F83092B2D0F844
:101D9C00F81001F063F827E0D0F80C21B2FBF3F552
:101DAC0003FB15255DB9934209D8D0F810319A423E
:101DBC0005D22A4601F052F8C4F8105114E0D4F8B8
:101DCC00C434DB682BB194F8E220032A01D12046FD
:101DDC0098470523002284F8E1301146204601F093
:101DEC0052F8204601F032F994F8E630012B10D16C
:101DFC00094A236912685A60002384F8E63008E027
:101E0C00D0F8C4345B6923B190F8E220032A00D1E6
:101E1C009847002038BD00BFE8010020F8B5044603
:101E2C000025402700F53371012680F8CC5280F84C
:101E3C00CD52C0F8D47280F8CF5201F028F984F852
:101E4C00EC5084F8ED60C4F8F47084F8EF50A4F80A
:101E5C00F25004F1EC01204601F019F9D4F8C83421
:101E6C0084F8E26013B15B68A07898470020F8BD55
:101E7C0008B5054B53F820300846DB69984700300D
:101E8C0018BF012008BD00BF783A000808B5054B03
:101E9C009B6803B19847044B9B6803B1984700209B
:101EAC0008BD00BF3001002004010020074A0223B6
:101EBC0010B51370064A00241371064B1C60064BB8
:101ECC001C60FFF7E3FF204610BD00BFF8010020A7
:101EDC00BC180020EC010020E401002010B50446E1
:101EEC000423002280F8E130114600F0B7FF2046B1
:101EFC0001F0ACF8002010BD034610B50224C3F865
:101F0C000C21C3F8082180F8E14000F0A7FF002065
:101F1C0010BD10B50446802101F047F82046002181
:101F2C0001F043F82046BDE8104001F08FB80000E6
:101F3C002DE9F74F5C4B80461A781F46042A40F077
:101F4C0098805A4E5A4D3368002B4DD1594B1A7804
:101F5C001AB92B68012B3CD183E0212A0FD12A68B6
:101F6C00052A36D1DA789978120402EB01215A78D5
:101F7C001B790A4402EB03634F4A136071E0412A58
:101F8C0027D12A68052A24D1DA789C78120402EB2E
:101F9C0004225C7822441C79474B02EB04641C60DD
:101FAC00464B2146D3F800904846FFF761FF80B9B5
:101FBC0004F17843B3F5003F0BD3B9F1010F08D806
:101FCC003F4B53F82930DB681BB12046984700285B
:101FDC0047D000238DF80030694601234046ADF808
:101FEC000630FFF796FF3CE0012B3AD9324A03F555
:101FFC007F23126803F6FE7302EB03392F4B49461D
:10200C001C68D5F800A02046FFF732FF0028E0D16D
:10201C0009F17843B3F5003FDBD3012CD9D8284B19
:10202C0053F824B0DBF81030002BD2D00324DBF8AB
:10203C00103051464846984730B9DBF818305146B5
:10204C004846984740B90CE0DBF8103051464846FA
:10205C0098470028F1D0BCE7631E13F0FF04E6D1CB
:10206C00B7E70023174A2B60336003233B701371CF
:10207C0015E0072A13D1144A00211160134A527F2C
:10208C0012F0040F0F4A03D006211970117106E0EB
:10209C00082119700E4B11714FF4FA721A6000205E
:1020AC0003B0BDE8F08F00BFF8010020EC01002068
:1020BC00E4010020E4020020DC000020F0010020FC
:1020CC00783A0008BC180020F4010020B60000206B
:1020DC00E00100202DE9FF414EF6C1620B88054658
:1020EC00934202D18B88052B05E04EF6C0629342D9
:1020FC0017D18B88042B14D18B88042B02D1CA885E
:10210C00A24991E0052B40F07A818C78CA880CB9F1
:10211C009F4969E1002401940294ADF80C4001A997
:10212C0062E10C7814F0600400F04881202C40F03F
:10213C0068814C78062C00F22481DFE814F0F20060
:10214C00070030008E00C600D700DA00CA88914B19
:10215C00C2B11878022801D005286CD148888E4964
:10216C00C5F8EC2208608D49C5F8E8220A60032105
:10217C0019708B4B85F8E11019712846894900F0CC
:10218C0082FE3EE11A78052A01D0022A53D1864AF2
:10219C000121116006221A70814B1A7131E1CF882E
:1021AC007C4B002F53D018787B4A0228DFF8EC8147
:1021BC0001D0092843D14E88C8F800701660784ABF
:1021CC007EB9032F774998BF09241C702123147101
:1021DC004B700322412328460E708B70FFF78CFE48
:1021EC00CDE0012E24D009211970704B06F57F2605
:1021FC001B6806F6FE7603EB06366D4B11711C68F8
:10220C0031462046FFF734FE58B9012C09D8694BEA
:10221C0053F824305B6923B1394630469847014660
:10222C0000E06049B8F800202846FFF765FEE8E0BA
:10223C000F20187010712846FFF76BFEE1E00024A8
:10224C002846C8F800401460FFF763FEDAE002226B
:10225C001A70534B3C461A71D4E04E4B1A78062A2E
:10226C001FD0072A2AD0032A2CD14C4A11684C4A79
:10227C0099B104211970484B11711A684C494B4B98
:10228C002AB948480078412801D1086801E008685B
:10229C000122196800F010FE14E00521197011716B
:1022AC0010E0414A1268012A03D107221A70052254
:1022BC0006E03AB9404A527F520703D502221A70FF
:1022CC00374B1A7106223649AEE7324A13780A2B7D
:1022DC00334B05D10221002411701C70197191E04F
:1022EC000A2111700E221A7019718AE001222949F3
:1022FC009AE728490A78092A00F283804FF41B7365
:10230C00D34003F0010383F00104002B79D0244B5C
:10231C0002221C701A71204B0A701C601F4B1C602F
:10232C0070E01C480278092A0FD84FF41B73D34075
:10233C0003F0010383F001023BB102230370184840
:10234C000371154B1A60154B1A601B4B9B7F03F0E6
:10235C00100303F0FF0663B1284600F01DFE2A6946
:10236C0040F6B83053686FF341035360FFF758FBE6
:10237C0048E04B884FF47A705843FFF751FB3446D2
:10238C0040E02846FFF7C5FD39E000BF4E3A000893
:10239C0058390008F8010020EC010020E40100206D
:1023AC00BC180020E4020020F4010020DC00002016
:1023BC00F0010020783A0008B60000204B780A2B78
:1023CC0010D00B2B14D0062B1CD14B881B0A212BA5
:1023DC0005D1CA880D49092A28BF092204E02146E3
:1023EC00224601E00A4901222846FFF785FD09E053
:1023FC008B78012B3FF61FAF054A136002E00224D5
:10240C0000E00024204604B0BDE8F081D10000209B
:10241C00F001002010B50446D0F8C4341B6898476E
:10242C00D4F8C8340BB19B689847002010BD00004D
:10243C008B072DE9F04107460E4607D04FF6FC738B
:10244C000B400A4604331349FF2009E000F0B0FFAB
:10245C00114BF322DA6008240025DFF838800CE0F9
:10246C009A42F3D250540132FAE7082C09D155F8AC
:10247C00081000F041FF04460435B54205EB070097
:10248C00F3D300F08DFFB4F1080018BF0120BDE8B4
:10249C00F08100BFE4020020003C024010B504466D
:1024AC0000F086FF0E4BF322DA60204600F0E6F8CF
:1024BC0004460C4B0120A0401B8880B2184201D16D
:1024CC00FFF7B8FA084B0221185D00F033FF044601
:1024DC0000F066FFB4F1080018BF012010BD00BF6A
:1024EC00003C0240163C02404C39000870B5049D7B
:1024FC009DF81840002871D1B1F1006F6ED3681EA1
:10250C000844B0F1016F69D8002A67D1B3F1006FAC
:10251C0064D35A1E2A44B2F1016F5FD814F00E0F27
:10252C0001D1012070BD08682D4A0240B2F1005F54
:10253C0014BF0A4601F5C27212B150681268821AB1
:10254C0014F00A0F02D0101D854247D30D682448A1
:10255C002840B0F1005F14BF084601F5C270857BBE
:10256C00012D02D08689062E38D1660702D5006867
:10257C00984233D1200703D59DF81430AB422DD1AE
:10258C00A307CED552B3885800BA164B01249C60D1
:10259C0022F003040C44A14205D051F8045B95FAD7
:1025AC00A5F51D60F7E70F4B1B6893FAA3F302F038
:1025BC0003020A4491420ED011F8014B63400824E7
:1025CC0013F0010F4FEA530516BF074B2B466B4018
:1025DC00013CF5D1EEE7DB439842A2D0002070BD60
:1025EC000000F12F003002402083B8ED4FF0804303
:1025FC00D86A013080B270474FF080439A6B0280EA
:10260C00DA6B42801B6C8380704700000F4A1823E2
:10261C0003FB0020837DDA0717D55B070269808AEC
:10262C0005D44FF08043DB6A0133591A89B208B9DB
:10263C0051637047042801D191637047082801D178
:10264C00D16370470C2808BF116470471C0200202E
:10265C0038B50D4614464FF080439863D9631A641D
:10266C0001460620FFF7D2FF29460720FFF7CEFFD1
:10267C002146BDE838400520FFF7C8BF124B9842F1
:10268C0011D903F5804398420FD903F58043984242
:10269C000DD903F5804398420BD903F5803398424A
:1026AC000BD8052006E0012004E0022002E0032004
:1026BC0000E00420013880B2704700F1774000F54B
:1026CC007E00400C05307047FF3F0008202200219F
:1026DC00014801F006B800BFFC010020F0B5274E00
:1026EC0040013218937D4FF00F0E03F0030403F0FA
:1026FC00FC0303F1804303F59C339D68A4000EFAA0
:10270C0004FE25EA0E05177D9D609D6807FA04F40A
:10271C002C439C60548A1A4B5C61558AEC4321B360
:10272C001968127F214019605968102A01EA0401C6
:10273C005960196841EA05011960996801EA0401B8
:10274C009960D96804EA0104DC6006D19A682A43CE
:10275C009A60DA681543DD600AE002F1804303F504
:10276C009E331A6815431D6002E01A6814401C6001
:10277C003044428A024B5A61F0BD00BF5801002020
:10278C00003C014010B571BB038C634C23F001037A
:10279C001B041B0C0384038C8188028BA04222F047
:1027AC0073024FEA02424FEA12429BB289B242F0E4
:1027BC00600208D004F58064A04204D023F0020328
:1027CC0043F0030306E023F00E0321F4407143F0C1
:1027DC00030389B281800283002242630384038B4A
:1027EC0023F008032FE0042931D1038C4A4C23F049
:1027FC0010031B041B0C0384038C8188028BA042E6
:10280C0022F4E6424FEA02424FEA12429BB289B2EC
:10281C0042F4C04208D004F58064A04204D023F0F6
:10282C00200343F0300306E023F0E00321F4406181
:10283C0043F0300389B281800283002282630384D7
:10284C00038B23F400631B041B0C03835DE008293A
:10285C002ED1038C304C23F480731B041B0C03848B
:10286C00038C8188828BA04222F073024FEA0242D1
:10287C004FEA12429BB289B242F0600208D004F5D2
:10288C008064A04204D023F4007343F4407306E048
:10289C0023F4606321F4405143F4407389B2818086
:1028AC0082830022C2630384838B23F0080329E014
:1028BC000C292AD1038C184C23F480531B041B0CB9
:1028CC000384038C8188828B23F4005322F4E64228
:1028DC0012041B04120C1B0CA04289B242F4C0421D
:1028EC0043F4405303D004F58064A04202D121F498
:1028FC00804189B281808283002202640384838BAD
:10290C0023F400631B041B0C838303889BB243F0EA
:10291C008003038010BD00BF00000140038810B588
:10292C00DB0769D43E4B984206D13E4A536C43F0C8
:10293C00010353643C4B20E0B0F1804F04D1394A81
:10294C00136C43F0010316E0384B984204D1354A1E
:10295C00136C43F002030EE0354B984204D1314A1C
:10296C00136C43F0040306E0324B984204D12D4A19
:10297C00136C43F0080313642F4B304A284CB3FB01
:10298C00F2F20388013AA04292B29BB212D004F543
:10299C008064A0420ED0B0F1804F0BD0A4F58034EF
:1029AC00A04207D004F58064A04203D004F58064F3
:1029BC00A04202D123F070039BB2214CA04206D05E
:1029CC0004F58064A0421CBF23F440739BB20380C7
:1029DC0042F20F73C362124B0285984203D003F587
:1029EC008063984201D100230386012383820388EC
:1029FC009BB243F08003038081B103889BB243F008
:102A0C0001030380064B984208D1B0F844306FEABA
:102A1C0043436FEA53439BB2A0F8443010BD00BF50
:102A2C000000014000380240000E2707000400405F
:102A3C0000080040000C00400087930340420F0048
:102A4C0000100040BFF34F8F0449054BCA6802F4D5
:102A5C00E0621343CB60BFF34F8FFEE700ED00E065
:102A6C000400FA052F4B00211A6882B042F00102D3
:102A7C001A6099601A6822F0847222F480321A600B
:102A8C00294A5A601A6822F480221A60D96000918F
:102A9C0001911A6842F480321A601A6802F400320A
:102AAC000192009A01320092019A1AB9009AB2F579
:102ABC00A06FF2D11B4B1B6813F4003318BF01231A
:102ACC000193019B012B05D0184B4FF000629A60CB
:102ADC0002B07047134B9A689A609A6842F40042AD
:102AEC009A609A6842F4A0529A60114A5A601A6825
:102AFC0042F080721A6019680A4A8901FBD540F2CB
:102B0C0003710C4B1960936823F003039360936873
:102B1C0043F002039360936803F00C03082BFAD183
:102B2C00D2E700BF003802401030002400ED00E076
:102B3C001A3C4005003C024082B000230193054B37
:102B4C000193019B03EB80000190019B196002B083
:102B5C00704700BF502800404DF2010208B5084BE9
:102B6C004FF4A044DA811C81FFF7B0FD21460A2006
:102B7C00FFF7E2FF034800F00FFAFFF763FF00BF17
:102B8C00FC010020E413002010B50A48FEF780FF7A
:102B9C004FF6FF72084B04469A8130B100225A81DD
:102BAC001A745A225A74FFF7D7FFFFF78FFD20468D
:102BBC0010BD00BFED1A0008FC0100204209012ADB
:102BCC00074B01D11B6803E0022A0CBF1B6F5B6F24
:102BDC0000F01F0023FA00F000F00100704700BF66
:102BEC000038024010B5044B1C7844430020FFF71A
:102BFC00FDFC6043000C10BD2C010020F7B54F7894
:102C0C004E69012F3BD185692C682B690093DAB290
:102C1C00C3F3074336B966F306028DF8002067F359
:102C2C00C4030EE08F68BE428CBF67F3060266F3E6
:102C3C0006028DF800204FF0010288BF4F6162F34D
:102C4C00C4038DF80230009B2B61C378012B05D196
:102C5C000B780A6900EB83039B695A6144F00444C6
:102C6C002C60C378002B36D14B69002B33D0006914
:102C7C000978426B01238B40134343632BE00D789F
:102C8C008F68103500EB85039B681C681B690093EB
:102C9C00DAB2C3F3074306B14F6167F306028DF84E
:102CAC000020012262F3C4038DF8023000EB85058D
:102CBC00AB68009A1A61C378012B05D10B780A69AD
:102CCC0000EB83039B6C5A610B7844F0044400EBDB
:102CDC008300836C1C60002003B0F0BDB0F5804F06
:102CEC0034BF00200120704700207047002070473F
:102CFC0000F0F0BC0A4608B50146034800F0F1FCB0
:102D0C00003018BF012008BDE402002038B5044C87
:102D1C00044DAC4203D254F8043B9847F9E738BD54
:102D2C00C43A0008C83A000807B500230193019B78
:102D3C0043F020030193019B60F38A130193094B29
:102D4C00DA68019B1361084B1169013B019102D0B8
:102D5C0001998906F8D40320FEF762FE002003B027
:102D6C005DF804FBE4130020410D030030B505466B
:102D7C00274C284A04EB4014136B618985B00B4334
:102D8C001363238960680293237B02A98DF80C30AE
:102D9C00A37B8DF80F3000F039FA4FF08042938905
:102DAC00284623F002031B041B0C9381238B8DF804
:102DBC000430638B01248DF80530214600238DF8F7
:102DCC0006308DF80740FFF789FC9DF807301BB1E2
:102DDC0001A800F0FBFA0AE09DF804305A0903F050
:102DEC001F039C4002F120030B4A42F823401C2392
:102DFC008DF8043006238DF8053000238DF806304D
:102E0C0001A801238DF8073000F0E0FA05B030BDC1
:102E1C00580100200038024000E100E030B5C8B194
:102E2C000246131A12F8014BDBB2002CF9D10A4AF4
:102E3C005B0002330B8013700323537001380223A1
:102E4C0010F8015F35B1591CD554C9B20233DBB24D
:102E5C005454F5E730BD00BFE412002010B5012436
:102E6C0080F8ED40002480F8EC40C0F8F810C0F871
:102E7C00FC10C0F80441C0F8002100F1EC01FFF790
:102E8C00BDFE204610BD10B50023C0F8E43280F81A
:102E9C00CD3280F8CC32C37800F53374012B08BFE7
:102EAC00C0F8DC12C0F8D812C0F8E0222146FFF7B7
:102EBC00A5FE002010BD000038B505461446FEF7EF
:102ECC00D7FFB8B9012D15D80B4914F001040B4BE1
:102EDC0051F8252006D0116A0A0A5970090C9A700B
:102EEC00D97038BD526A2046110A5A70120C99706A
:102EFC00DA7038BD012038BD783A0008BC180020C3
:102F0C00064B0022194641F8042B1A825A608A801B
:102F1C009A729A81DA8101229A747047C41800203F
:102F2C0070B50446C0F30740FFF75CFE0546C4F3DA
:102F3C000720FFF757FE0646E0B2FFF753FE314677
:102F4C00024600232846BDE87040FFF781BB000015
:102F5C0013B50E4B1B780BB10D4B00E00D4B002144
:102F6C0068461C68FFF748FBBDF80020BDF802302E
:102F7C001343BDF8042013439BB20BB1002000E0B7
:102F8C002046FFF7CDFF02B010BD00BFDC020020D1
:102F9C00B8180020E0020020026940F6B8305368EF
:102FAC0043F002035360FEF73BBD10B54CB2002C4E
:102FBC0001F07F034FF02802B5BF02FB030102FBB7
:102FCC000101EC3101F533710122DBB28A70002C66
:102FDC004FEAD4720B704A7000EB830006DA8269F8
:102FEC001368002B04DA43F0804301E0826C136811
:102FFC0043F400131360002010BD000037B50546E4
:10300C000023114C01930320FEF70AFD2A68013CB2
:10301C001369019314D0019B002BF4DA019B43F04C
:10302C0001030193019B13612968074B0A69013B5A
:10303C00019202D0019AD207F8D40320FEF7F0FCDB
:10304C00002003B030BD00BF410D030082B000234F
:10305C000093C0238DF803304FF00003012262F37C
:10306C00C4038DF8023018238DF80030009A836C5D
:10307C001A61C378012B08D1836C00F2AC425A61FF
:10308C00836C1A684FF080221A6002B0704730B51A
:10309C004C780022012C0B7807D100EB830504FA45
:1030AC0003F3AD6963F30F0207E000EB8304A56C37
:1030BC00012404FA03F363F31F422B681C040DD4A0
:1030CC008C6864F30A03CC7864F39343CC8864F380
:1030DC00995343F0805343F400432B600B78012B3E
:1030EC00036905D1C17A19B9D96B0A43DA6302E0D5
:1030FC00D9690A43DA61002030BD00000B4BDA6855
:10310C00D1030DD4DA68D2060CD4DA6812F0EF0FC2
:10311C000AD1DB6813F0020F14BF07200820704798
:10312C00012070470520704706207047003C024084
:10313C0012230B8000487047803A000804230B8050
:10314C00004870479801002012230B8000487047FC
:10315C009C01002008B50248FFF760FE014808BD3D
:10316C00923A0008E412002008B50248FFF756FE18
:10317C00014808BD923A0008E412002008B5024844
:10318C00FFF74CFE014808BD963A0008E4120020F7
:10319C0008B50248FFF742FE014808BD9F3A0008F7
:1031AC00E412002070B58EB005AC21220E462046EC
:1031BC00002100F037FB134B01AD93E8070085E8C5
:1031CC0007000023EA5C100900F13001392988BF9F
:1031DC0000F1370102F00F0204F8131002F1300174
:1031EC00392988BF02F1370104EB430201330C2B60
:1031FC005170E7D120463146FFF710FE02480EB061
:10320C0070BD00BF107AFF1FE4120020F0B5002340
:10321C00012703260A6807FA03FC3CEA020233D1B1
:10322C005A0006FA02F4E44305682540056091F85B
:10323C0004E005680EFA02FE4EEA050505600D79FC
:10324C00013D012D14D885682C40846091F805E06F
:10325C0085680EFA02FE4EEA05058560446824EA8C
:10326C000C0444608C7945689C40A4B22C434460A7
:10327C00C46806FA02F524EA0504C460CD79C46872
:10328C0005FA02F22243C2600133102BC2D1F0BD09
:10329C0007B508238DF80730FFF730FF8DF80700CE
:1032AC009DF80730012BF7D09DF8070003B05DF8AF
:1032BC0004FB0000014BD860704700BF003C02408B
:1032CC0070B505460E46FFF7E3FF082811D1094CEF
:1032DC00236923F44073236123692361236943F039
:1032EC00010323612E70FFF7D3FF236923F0010341
:1032FC00236170BD003C024070B505460E46FFF7D9
:10330C00C7FF082813D10A4C236923F440732361A7
:10331C00236943F400732361236943F001032361A0
:10332C002E60FFF7B5FF236923F00103236170BD05
:10333C00003C024070B5064641B1012908D0022973
:10334C000CBF4FF400754FF4407503E00D4601E0DF
:10335C004FF48075FFF79CFF08281ED10F4C236992
:10336C0023F440732361216929432161236923F0EC
:10337C00F8032361236943F002031E43266123698A
:10338C0043F480332361FFF783FF236923F00203A7
:10339C002361236923F0F803236170BD003C0240D4
:1033AC00024A136943F0004313617047003C02402A
:1033BC00044B1A69002ABFBF034A5A6002F18832D3
:1033CC005A607047003C02402301674510B5114B11
:1033DC004478DA68D243C2F30222C2F10403DBB2AE
:1033EC0004FA03F3D9B20F231341827813400B4331
:1033FC00027809491B01DBB20A4482F800330378D6
:10340C000122580903F01F0302FA03F341F820309C
:10341C0010BD00BF00ED00E000E100E008B54FF486
:10342C008060FEF73DF84FF40060FEF739F84FF47A
:10343C008050FEF735F84FF40050FEF731F84FF49A
:10344C008040FEF72DF8BDE808404FF40040FEF731
:10345C0027B808B52020FEF723F84020FEF720F807
:10346C008020FEF71DF84FF48070FEF719F8BDE8C8
:10347C0008404FF40070FEF713B81020FEF710B898
:10348C000820FEF70DB80420FEF70AB80220FEF75C
:10349C0007B80120FEF704B8002103E00B4B5B5882
:1034AC00435004310A480B4B42189A42F6D30A4A4D
:1034BC0002E0002342F8043B084B9A42F9D3FFF791
:1034CC00D1FAFEF705F8FCF7D9FE7047C83A0008A8
:1034DC0000000020B0010020B0010020D81800200E
:1034EC00FEE7000008B5124B98421A4609D100239A
:1034FC0052F82310013113D10133B3F5805FF7D1AA
:10350C000CE00C4B98421A4608D1002352F82310B9
:10351C00013107D10133B3F5805FF7D1002008BD2D
:10352C00082000E01020014600F0F1F808BD00BFB3
:10353C00004000080080000870B5E2B000214FF494
:10354C00C272054601A800F06DF90123184A8DF8E6
:10355C000D308DF80E30174B0492B3F908101E463F
:10356C00B1F5807F144C114606D1D868904203D136
:10357C0054F82500184419E0104AB2F90830B3F594
:10358C00807F06D1D3688B4203D154F825001044B8
:10359C000CE00820014600F0BAF8064801A94FF4E7
:1035AC00C27200F0CFF854F82530F01862B070BD3C
:1035BC004252434D00400008B03A00080080000819
:1035CC002DE9F04F8146E3B0042017468A46FFF7F9
:1035DC00B3FF002105464FF4C27201A800F022F996
:1035EC00384C01238DF80D3007EB0908364BA045FC
:1035FC0004935BD805EB090051463A4600F0E0F81D
:10360C0000285BD0314B324EA9F5C27BB54208BFC6
:10361C001E463046FFF766FF06F5C27005F5C2710F
:10362C005A4600F08FF8002843D1B1444846514621
:10363C003A4600F087F800283ED1A4F5C274CBEBD3
:10364C000404E21B22D101238DF80E300023619378
:10365C00EB7A05F11001502205A88DF80F30FCF71C
:10366C0097FD05F160014FF4907219A8FCF790FDDD
:10367C00304601A94FF4C27200F064F8044680B1E0
:10368C003046FFF72FFF6FF0040017E009EB07003F
:10369C0005EB080100F056F80028D4D06FF00300B9
:1036AC000CE02846FFF71EFF204607E04FF0FF30E6
:1036BC0004E06FF0010001E06FF0020063B0BDE8C0
:1036CC00F08F00BF004000004252434D00800008C4
:1036DC000040000810B504460020FFF72DFF2044E1
:1036EC0010BD70B50546144608460E46FFF7F2FFAE
:1036FC002946224600F026F840B106F5EB50294643
:10370C002246BDE870401C30FFF75ABF70BD38B57B
:10371C0004460D46FFF74CFEF320FFF7CBFDFDF7FB
:10372C0029FEAC420AD820460221FFF703FE0828E6
:10373C0000D0FEE7FDF71EFE0834F2E7FFF730FE7F
:10374C00002038BD2DE9F04781460F46904601EB2D
:10375C00020AFFF72DFEF320FFF7ACFD3C464D4669
:10376C0054451ED2AB0710D1C4EB0A030F2B4FF0FC
:10377C000B060BDD28462168FFF7BEFD082801D09B
:10378C00013EF7D104350434EAE70B2628462178AC
:10379C00FFF796FD082801D0013EF7D10135013421
:1037AC00DEE739464246484600F00AF800280CBFCE
:1037BC0000240424FFF7F4FD2046BDE8F087000048
:1037CC00032A70B426D940EA01039B0711D0047870
:1037DC000D78AC4222D10244431C05E013F8014B96
:1037EC0011F8015FAC4219D19342F7D1002070BCA3
:1037FC0070470C4603461E6825681846AE422146A3
:10380C0003F1040304F10404E1D1043A032A184639
:10381C002146F0D8002ADAD11046E8E7601B70BCCC
:10382C00704700BF70B4840746D0541E002A41D0A4
:10383C00CDB2034602E0621EE4B3144603F8015B0A
:10384C009A07F8D1032C2ED9CDB245EA05250F2CB9
:10385C0045EA054519D9264603F11002103E0F2EF4
:10386C0042F8105C42F80C5C42F8085C42F8045CCC
:10387C0002F11002F2D8A4F1100222F00F0204F0AF
:10388C000F041032032C13440DD91E462246043A61
:10389C00032A46F8045BFAD8221F22F003020432F2
:1038AC00134404F003042CB1C9B21C4403F8011BEB
:1038BC00A342FBD170BC704714460346C2E700BF5D
:1038CC0001000000000002400020010001000D007A
:1038DC000000000000000000010000000000024099
:1038EC0008000100020003010000000000000000BD
:1038FC000100000000000240020001000200010172
:10390C000000000000000000010000000000024068
:10391C000400010002000201000000000000000091
:10392C0000000008004000080080000800C00008EB
:10393C000000010800000208EA3900082C3A0008CF
:10394C0000081018202830384048505892000000C9
:10395C0000010500010088000000070000002A009B
:10396C0044006500760069006300650049006E0044
:10397C00740065007200660061006300650047001A
:10398C0055004900440073000000500000007B000B
:10399C0033003700660062003500660039003000E5
:1039AC002D0031006100330034002D00340039004B
:1039BC00320039002D0039003300330062002D0035
:1039CC0038006100320037006500310038003500E6
:1039DC0030003000330033007D000000000040490F
:1039EC006E7465726E616C20466C61736820202069
:1039FC002F307830383030303030302F30332A3070
:103A0C0031364B612C30312A3031364B672C30310A
:103A1C002A3036344B672C30372A3132384B67001A
:103A2C004044435420466C6173682020202F30782A
:103A3C0030303030303030302F30312A3031364B5E
:103A4C0067002800000000010400010000000000D5
:103A5C000000000157494E55534200000000000081
:103A6C0000000000000000000000000030010020F9
:103A7C000401002012034D00530046005400310095
:103A8C0030003000EE00444655005061727469639A
:103A9C006C650050686F746F6E20444655204D6FF6
:103AAC00646500007C1D0000200200008401000001
:0C3ABC00301A0000000000000D2F000870
:103AC8005531000849310008893100089D31000846
:103AD800B131000861310008753100083D31000836
:103AE800FF00FF00890D0008890D0008890D0008F6
:103AF800890D0008890D0008890D0008890D000846
:103B0800610D000800FFFF00FF00FF00AD1C00086A
:103B1800B91E0008E12000083D1F0008A91C000884
:103B2800000000000000000000000000000000008D
:103B3800000000009D1C0008911C0008411D0008A1
:103B48002D150008651D0008C1150008F91C00089E
:103B5800291E0008091D0008271D0008EB1C000885
:103B6800DD1C000800000000000000000A0600023A
:103B780000000040010009022400010102C03209CE
:103B880004000000FE0102060904000100FE010213
:103B98000709210BFF0000101A01000000000208AD
:103BA80009072400010102C0320904000000FE01D7
:103BB80002060904000100FE01020709210BFF00AB
:103BC80000101A012C3A0008511C0008F52C0008B6
:103BD800491C0008012D0008FD2C0008F92C0008DC
:103BE800E92C000801000000F4010000600000005A
:103BF800EA3900084D1C00088B1C0008A92400089D
:103C08003D240008891C0008651C0008551C000894
:103C18000000000000000000000000000008024052
:103C2800800004000000010000008000020007007E
:103C3800170007000C000000000000000000000052
:103C4800000000000000000000000000000000006C
:103C58000000000000000000040309041201000233
:103C680000000040042B06D05002010203010000AE
:103C7800FFFFFFFF00000102030405060708090A09
:103C88000B0C0D0E0F101112131415161718191A04
:083C98001B1C1D1E1F2028004B
:043CA000785634120C
:040000050800019C52
:00000001FF
